:020000040000fa
:080000000002040000000000f2
:020000040000fa
:100008009a0200009a0200009a0200009a02000078
:100018009a0200009a0200009a0200009a02000068
:100028009a0200009a0200009a0200005a03000097
:100038009a0200009a0200009a0200009a02000048
:100048009a0200009a0200009a0200000a030000c7
:10005800460300009a0200009a0200009a0200007b
:100068009a0200009a0200009a0200009a02000018
:100078009a0200009a0200009a0200009a02000008
:100088009a0200009a0200009a0200009a020000f8
:100098009a0200009a0200009a0200009a020000e8
:1000a8009a0200009a0200009a0200009a020000d8
:1000b8009a0200009a0200009a0200009a020000c8
:1000c8009a0200009a0200009a0200009a020000b8
:1000d8009a0200009a0200009a0200009a020000a8
:1000e8009a0200009a0200009a0200009a02000098
:1000f8009a0200009a0200009a0200009a02000088
:100108009a0200009a0200009a0200009a02000077
:100118009a0200009a0200009a0200009a02000067
:100128009a0200009a0200009a0200009a02000057
:100138009a0200009a0200009a0200009a02000047
:100148009a0200009a0200009a0200009a02000037
:100158009a0200009a0200009a0200009a02000027
:100168009a0200009a0200009a0200009a02000017
:100178009a0200009a0200009a0200009a02000007
:100188009a0200009a0200009a0200009a020000f7
:100198009a0200009a0200009a0200009a020000e7
:1001a8009a0200009a0200009a0200009a020000d7
:1001b8009a0200009a0200009a0200009a020000c7
:1001c8009a0200009a0200009a0200009a020000b7
:1001d8009a0200009a0200009a0200009a020000a7
:1001e8009a0200009a0200009a0200009a02000097
:0801f8009a0200009a020000c7
:020000040000fa
:100208009a0200009a0200009a0200009a02000076
:100218009a0200009a0200009a0200009a02000066
:100228009a0200009a0200009a0200005a03000095
:100238009a0200009a0200009a0200009a02000046
:100248009a0200009a0200009a0200000a030000c5
:10025800460300009a0200009a0200009a02000079
:100268009a0200009a0200009a0200009a02000016
:100278009a0200009a0200009a0200009a02000006
:100288009a0200009a0200009a0200009a020000f6
:100298009a0200009a0200009a0200009a020000e6
:1002a8009a0200009a0200009a0200009a020000d6
:1002b8009a0200009a0200009a0200009a020000c6
:1002c8009a0200009a0200009a0200009a020000b6
:1002d8009a0200009a0200009a0200009a020000a6
:1002e8009a0200009a0200009a0200009a02000096
:1002f8009a0200009a0200009a0200009a02000086
:100308009a0200009a0200009a0200009a02000075
:100318009a0200009a0200009a0200009a02000065
:100328009a0200009a0200009a0200009a02000055
:100338009a0200009a0200009a0200009a02000045
:100348009a0200009a0200009a0200009a02000035
:100358009a0200009a0200009a0200009a02000025
:100368009a0200009a0200009a0200009a02000015
:100378009a0200009a0200009a0200009a02000005
:100388009a0200009a0200009a0200009a020000f5
:100398009a0200009a0200009a0200009a020000e5
:1003a8009a0200009a0200009a0200009a020000d5
:1003b8009a0200009a0200009a0200009a020000c5
:1003c8009a0200009a0200009a0200009a020000b5
:1003d8009a0200009a0200009a0200009a020000a5
:1003e8009a0200009a0200009a0200009a02000095
:0803f8009a0200009a020000c5
:020000040000fa
:100400006f8020000e7f24000e0188000000000095
:10041000000020000000e000020032000001200087
:10042000200288000c000700204a20000100200064
:1004300011000700000020000000e0000200320070
:100440000000020000000000920402000000000012
:100450000040da000000fe004440a9000000200037
:100460000000e0000300320000002000a00188002e
:100470004440a80000000600910188008000780038
:100480000000eb0015003700e280400032a0b4000d
:100490009101ba00e280400032a0b4009102ba009b
:1004a000e280400032a0b4000002eb00472bde00e7
:1004b000f507b200602ce10004003a000059eb009f
:1004c0008301e900fdff3e00040037006128e100e0
:1004d000010032000082eb00040007001101ba00a5
:1004e0000200e000e8ff3a00000006003159ba00bf
:1004f0008301e9000c0032002159ba008301e900b0
:10050000080032000400e00003003a00e2804000ee
:1005100032a0b400f5ff370011d9ba008301e90019
:10052000faff3a008100e800e180400032a0b40008
:0c053000000006000040da000000fe00a1
:020000040000fa
:10053c000000fa0021e2a90021a2a9002182a90051
:10054c002162a900041180000480a1000490a10084
:10055c000411880020e2a90020c2a90020a2a90051
:10056c002082a9002062a900041180000410a100bf
:10057c000420a100041188002002a900041020000e
:10058c004411880023e2a90023c2a90023a2a900d8
:10059c002362a9002342a9002322a9002302a90057
:1005ac00141180000460a1000470a10014118800d3
:1005bc0022a2a9002282a9002262a9002242a9003b
:1005cc002222a9002202a9008580a9009580a800fa
:1005dc008560a9009560a8000042eb0004437800f8
:1005ec0015802000864a780021e2a8002342a8004a
:1005fc0014c0b3000443780005802000864a7800bc
:10060c000080fa0000000600849fbe00861f780060
:10061c003400f80004002000a40188000200fa0055
:10062c001480200014427800e14f520006003a007a
:10063c00048020001442780004c2ea0004437800cd
:10064c0005802000864a780014c0b300044378006b
:10065c0015802000864a780034118000044f780001
:10066c0024062000241188008560a9000080fa006f
:10067c003400f9004f0378004f02be000040060022
:10068c003400f800881f780008002000a8018800ba
:10069c004f0478000000fa008580a9000080fa0061
:1006ac003400f90000400600849fbe00861f7800cd
:1006bc000000fa008460a90005e1a9000480200074
:1006cc0014427800e14f520003003a0024408000ad
:1006dc000402e8002440880025408000843e20006d
:1006ec00848f520010003a000002eb002440880076
:1006fc0024168000044278006142620004c2ea00c1
:10070c00614262000482fb006102620026168000d6
:10071c00e5ff2f0085026300050272002416880095
:10072c0014062000241188000002eb000408880045
:10073c0005e1a8000080fa004f0378004f02be00cc
:10074c00004006000000fa0094022000343a8800b1
:10075c00243a80000460a1000470a100243a8800af
:10076c00253a800004fe2f0004826200243a88009f
:10077c00243a80000480a1000490a10004a0a100f0
:10078c00243a88004567a900160020008407200041
:10079c00a509200037742000844b7800854b780025
:1007ac00864b7800143a8000040378000600a00001
:1007bc00640420007505200027742000844b780009
:1007cc00854b7800864b780000000000153a8000bd
:1007dc00040027008482620004002100848f5200f0
:1007ec00faff3a0000000000153a800004022000d5
:1007fc0004826200e00f5200fbff320040a7a90008
:10080c000080fa00000006000000fa00153a800093
:10081c00f40d2000048362006404200075052000a0
:10082c0027742000844b7800854b7800864b780029
:10083c000002eb00041688000002eb00241688006e
:10084c000002eb00141688000002eb00441688002e
:10085c00c822a8000536800004fe2f000482620026
:10086c003400b300043688002535800004fe2f00c8
:10087c00048262000400a00024358800f40f2000dc
:10088c0064198800153a80000404200005037200e6
:10089c00640420007505200027742000844b780028
:1008ac00854b7800864b78000080fa00000006002b
:1008bc000000fa000002eb00240888008460a90004
:1008cc002405800004c0a10004d0a00004e0a00016
:1008dc00240588009460a8000002eb00040888003e
:1008ec00a40920001408880005e1a90005a1a900ad
:1008fc0004c1a900240880000440a0000450a000fa
:10090c00240888000441a9000421a90005e1a800dd
:10091c000080fa00000006000000fa00baff070091
:10092c0088ff070002ff0700e1ff07001406200004
:08093c0024118800ffff3700c1
:020000040000fa
:100944000008000006000000000000000000000095
:020000040000fa
:0200000401f009
:04000000ffff0000fe
:020000040000fa
:0200000401f009
:04000400ffff0000fa
:020000040000fa
:0200000401f009
:04000800ffff0000f6
:020000040000fa
:0200000401f009
:04000c0001000000ef
:020000040000fa
:0200000401f009
:0400100047000000a5
:020000040000fa
:0200000401f009
:040014005f00000089
:020000040000fa
:0200000401f009
:04001800f7000000ed
:020000040000fa
:0200000401f009
:04001c00dfff000002
:00000001FF
