:020000040000fa
:080000000002040000000000f2
:020000040000fa
:1000080002030000020300000203000002030000d4
:1000180002030000020300000203000002030000c4
:100028000203000002030000020300009a0200001d
:1000380002030000020300000203000002030000a4
:100048000203000002030000020300000203000094
:100058000203000002030000020300000203000084
:100068000203000002030000020300000203000074
:100078000203000002030000020300000203000064
:100088000203000002030000020300000203000054
:100098000203000002030000020300000203000044
:1000a8000203000002030000020300000203000034
:1000b8000203000002030000020300000203000024
:1000c8000203000002030000020300000203000014
:1000d8000203000002030000020300000203000004
:1000e80002030000020300000203000002030000f4
:1000f80002030000020300000203000002030000e4
:1001080002030000020300000203000002030000d3
:1001180002030000020300000203000002030000c3
:1001280002030000020300000203000002030000b3
:1001380002030000020300000203000002030000a3
:100148000203000002030000020300000203000093
:100158000203000002030000020300000203000083
:100168000203000002030000020300000203000073
:100178000203000002030000020300000203000063
:100188000203000002030000020300000203000053
:100198000203000002030000020300000203000043
:1001a8000203000002030000020300000203000033
:1001b8000203000002030000020300000203000023
:1001c8000203000002030000020300000203000013
:1001d8000203000002030000020300000203000003
:1001e80002030000020300000203000002030000f3
:0801f8000203000002030000f5
:020000040000fa
:1002080002030000020300000203000002030000d2
:1002180002030000020300000203000002030000c2
:100228000203000002030000020300009a0200001b
:1002380002030000020300000203000002030000a2
:100248000203000002030000020300000203000092
:100258000203000002030000020300000203000082
:100268000203000002030000020300000203000072
:100278000203000002030000020300000203000062
:100288000203000002030000020300000203000052
:100298000203000002030000020300000203000042
:1002a8000203000002030000020300000203000032
:1002b8000203000002030000020300000203000022
:1002c8000203000002030000020300000203000012
:1002d8000203000002030000020300000203000002
:1002e80002030000020300000203000002030000f2
:1002f80002030000020300000203000002030000e2
:1003080002030000020300000203000002030000d1
:1003180002030000020300000203000002030000c1
:1003280002030000020300000203000002030000b1
:1003380002030000020300000203000002030000a1
:100348000203000002030000020300000203000091
:100358000203000002030000020300000203000081
:100368000203000002030000020300000203000071
:100378000203000002030000020300000203000061
:100388000203000002030000020300000203000051
:100398000203000002030000020300000203000041
:1003a8000203000002030000020300000203000031
:1003b8000203000002030000020300000203000021
:1003c8000203000002030000020300000203000011
:1003d8000203000002030000020300000203000001
:1003e80002030000020300000203000002030000f1
:0803f8000203000002030000f3
:020000040000fa
:100400002f8020000e7f24000e01880000000000d5
:10041000000020000000e000020032000001200087
:10042000200288000c00070080322000010020001c
:1004300011000700000020000000e0000200320070
:100440000000020000000000da02020000000000cc
:100450000040da000000fe004440a9000000200037
:100460000000e0000300320000002000a00188002e
:100470004440a80000000600910188008000780038
:100480000000eb0015003700e280400032a0b4000d
:100490009101ba00e280400032a0b4009102ba009b
:1004a000e280400032a0b4000002eb00472bde00e7
:1004b000f507b200602ce10004003a000059eb009f
:1004c0008301e900fdff3e00040037006128e100e0
:1004d000010032000082eb00040007001101ba00a5
:1004e0000200e000e8ff3a00000006003159ba00bf
:1004f0008301e9000c0032002159ba008301e900b0
:10050000080032000400e00003003a00e2804000ee
:1005100032a0b400f5ff370011d9ba008301e90019
:10052000faff3a008100e800e180400032a0b40008
:1005300000000600849fbe00861f78000000fa00bd
:100540008460a90005e1a900044080000402e800dd
:100550000440880004408000f40f52000e003a006e
:100560000002eb000440880024168000044278005a
:100570006142620004c2ea00614262000482fb0040
:100580006102620026168000e5ff2f0085026300ed
:1005900005027200241688000002eb00040888009f
:1005a00005e1a8000080fa004f0378004f02be006a
:1005b000004006000000fa0040a7a90064022000e5
:1005c000343a8800243a80000460a1000470a1003d
:1005d000243a8800253a800004fe2f00048262003d
:1005e000243a88000002eb00041688000082eb0029
:1005f000241688000082eb00141688000300070010
:0c060000ffff37000040da000000fe00a1
:020000040000fa
:10060c000000fa000002eb00240888008460a900b6
:10061c002405800004c0a10004d0a00004e0a000c8
:10062c00240588009460a8000002eb0004088800f0
:10063c000082eb001408880005e1a8000080fa0095
:04064c0000000600a4
:020000040000fa
:100650000008000002000000000000000000000090
:020000040000fa
:0200000401f009
:04000000ffff0000fe
:020000040000fa
:0200000401f009
:04000400ffff0000fa
:020000040000fa
:0200000401f009
:04000800ffff0000f6
:020000040000fa
:0200000401f009
:04000c0000000000f0
:020000040000fa
:0200000401f009
:040010006700000085
:020000040000fa
:0200000401f009
:040014005f00000089
:020000040000fa
:0200000401f009
:04001800f7000000ed
:020000040000fa
:0200000401f009
:04001c00dfff000002
:00000001FF
